{
  "abi": [
    {
      "inputs": [
        {
          "internalType": "uint256",
          "name": "newNumber",
          "type": "uint256"
        }
      ],
      "name": "getCount",
      "outputs": [
        {
          "internalType": "uint256",
          "name": "",
          "type": "uint256"
        }
      ],
      "stateMutability": "nonpayable",
      "type": "function"
    },
    {
      "inputs": [],
      "name": "increment",
      "outputs": [],
      "stateMutability": "nonpayable",
      "type": "function"
    },
    {
      "inputs": [],
      "name": "number",
      "outputs": [
        {
          "internalType": "uint256",
          "name": "",
          "type": "uint256"
        }
      ],
      "stateMutability": "view",
      "type": "function"
    },
    {
      "inputs": [],
      "name": "thing",
      "outputs": [],
      "stateMutability": "nonpayable",
      "type": "function"
    }
  ],
  "bytecode": {
    "object": "0x608060405234801561001057600080fd5b5061017d806100206000396000f3fe608060405234801561001057600080fd5b506004361061004c5760003560e01c80638381f58a14610051578063c23539181461006c578063c55e90fe1461007f578063d09de08a14610089575b600080fd5b61005a60005481565b60405190815260200160405180910390f35b61005a61007a3660046100d5565b610091565b6100876100b2565b005b6100876100bf565b600061009f826104bc610104565b6000546100ac919061011b565b92915050565b6100bc6003610091565b50565b6000805490806100ce8361012e565b9190505550565b6000602082840312156100e757600080fd5b5035919050565b634e487b7160e01b600052601160045260246000fd5b80820281158282048414176100ac576100ac6100ee565b808201808211156100ac576100ac6100ee565b600060018201610140576101406100ee565b506001019056fea2646970667358221220a384997adbb5dc15a5ea251bcee466812dd3eab91abaacec0a4cdcc325cf5d4764736f6c63430008110033",
    "linkReferences": {}
  },
  "methodIdentifiers": {
    "getCount(uint256)": "c2353918",
    "increment()": "d09de08a",
    "number()": "8381f58a",
    "thing()": "c55e90fe"
  },
  "id": 16
}